:020000040800F2
:10000000F840002015030008EB3F0008753D00088C
:10001000E93F0008C9200008214600080000000050
:10002000000000000000000000000000194100086E
:100030007D21000800000000ED3F00081B41000882
:100040002F0300082F0300082F0300082F030008C8
:100050002F0300082F0300082F0300082F030008B8
:100060002F0300082F0300082F0300082F030008A8
:100070002F0300082F0300082F0300082F03000898
:100080002F0300082F0300082F0300082F03000888
:100090002F0300082F0300082F0300082F03000878
:1000A0002F0300082F0300082F0300082F03000868
:1000B000C14100082F0300082F0300082F03000888
:1000C0002F0300082F0300082F0300082F03000848
:1000D0002F0300082F0300082F030008154600080F
:1000E0002F0300082F0300082F0300082F03000828
:1000F0002F0300082F0300082F0300082F03000818
:100100002F0300082F0300082F0300082F03000807
:100110002F0300082F030008CD4100082F0300081B
:10012000CD2000082F0300082F0300082F0300082C
:100130002F0300082F0300082F0300082F030008D7
:100140002F0300082F0300082F0300082F030008C7
:100150002F0300082F0300082F0300082F030008B7
:100160002F0300082F0300082F0300082F030008A7
:100170002F0300082F0300082F03000800000000D1
:100180002F0300082F03000800F002F800F0B2F877
:100190000AA090E8000C82448344AAF10107DA45E2
:1001A00001D100F0A7F8AFF2090EBAE80F0013F082
:1001B000010F18BFFB1A43F0010318473458000021
:1001C000545800000A444FF0000C10F8013B13F0A3
:1001D000070408BF10F8014B1D1108BF10F8015BA0
:1001E000641E05D010F8016B641E01F8016BF9D193
:1001F00013F0080F1EBF10F8014BAD1C0C1B09D1EA
:100200006D1E58BF01F801CBFAD505E014F8016B5B
:1002100001F8016B6D1EF9D59142D6D370470000ED
:100220000023002400250026103A28BF78C1FBD8FF
:10023000520728BF30C148BF0B6070476E2900F0DD
:100240008F83702900F0E186662905F03E836529D9
:1002500005F03B83672905F03883612905F0378372
:1002600003681B0A28BF41F08001692900F0128150
:10027000642900F00F81752900F00C816F2900F0CE
:100280006E86782900F0AD86E92900F00986E42918
:1002900000F00686F52900F00386EF2900F06B8652
:1002A000F82900F0AC860368DB0928BF41F0800123
:1002B000632901F0CB80732901F0D080E32901F09C
:1002C000DB80F32901F0E080002070471FB505F0C6
:1002D000F7FA00F0A9FE04000020002104F004FE5B
:1002E000401C60600020002104F0E8FDE0601FBDBC
:1002F00010B510BD01F05FF91146FFF7E7FF04F0FC
:1003000031FA01F085F903B4FFF7F2FF03BC01F005
:1003100089F900000948804709480047FEE7FEE7E1
:10032000FEE7FEE7FEE7FEE7FEE7FEE7FEE7FEE7A5
:1003300004480549054A064B70470000B1410008D2
:1003400089010008F83A0020F8400020F83C00201D
:10035000F83C002053EA020C00F069802DE9F04BD4
:100360004FF00006002B1FBFB3FA83F503FA05F424
:1003700024FA05F65E4012BF1643B2FA82F502FA7D
:1003800005F4C5F120051EBF22FA05FC44EA0C0461
:10039000203556EA044C4FEA144418BF641C4FF051
:1003A00000084FF00009904271EB030C39D300298B
:1003B00019BFB1FA81F701FA07F6B0FA80F700FA2F
:1003C00007F6C7F120071EBF20FA07FC46EA0C0615
:1003D0002037B6FBF4FCA7EB0507103F07F01F0B17
:1003E000CBF120060CFA0BFB2CFA06F644BFB34601
:1003F0000026202FA4BF5E464FF0000B5BEA060CE0
:1004000008BF4FF0010B19EB0B09ABFB027C48EB6B
:100410000608C01B06FB02CC0BFB03CC71EB0C01E6
:10042000C1E70B46024641464846BDE8F08B13B58E
:100430004FF000004FF00001AFF30080BDE81C401A
:10044000704700001CB50C46064B7B446946009083
:10045000204600F0AEFC04460020694600F0BCFCDB
:1004600020461CBD8B0900000FB41CB5084B06AA22
:100470007B4469460090059800F09BFC04460020F0
:10048000694600F0A9FC20461CBC5DF814FB000086
:10049000650900002DE9F041064600241068752921
:1004A000314616A510D000F0C7F9002802DA404204
:1004B00013A507E031688A0701D512A502E04907B4
:1004C00004D511A5012401E000F0BFF900210A22A2
:1004D00006F1240709E0B0FBF2FCB0FBF2F302FBEB
:1004E0001C00303078541846491C0028F3D12346AC
:1004F0002A463046BDE8F04100F0D9B900000000BE
:100500002D0000002B000000200000002DE9F05F0E
:10051000894604464FF0000ADFF874B1FB44C0F886
:1005200020A02046E1688847002874D0252806D0FE
:10053000D4E901219047206A401C2062F1E700269F
:100540005F462046E16888472028054607DB312DB5
:1005500005D2781910F8200C08B10643F1E7B0076E
:1005600001D526F00406C4F81CA00027C4F818A082
:100570002A2D09D0284604F07CF838B304EB87080C
:10058000303DC8F8185019E059F8041B204604EB18
:1005900087029161E1688847012F054618D1E0691B
:1005A000002820DA26F020061DE0D8F8180000EB1D
:1005B000800005EB40003038C8F818002046E1689C
:1005C0008847054604F055F80028EED1012F0AD0DF
:1005D0002E2D08D12046E16888477F1C0546022F52
:1005E00046F02006C4DBA069002803DA404246F04A
:1005F0000106A061F00701D026F010066C2D0BD08B
:10060000682D09D04C2D39D06A2D35D0742D35D0B8
:100610007A2D33D016E038E0E1682F46204688472F
:10062000B842054609D16C2F26D04FF48060E168AE
:10063000064320468847054604E06C2F1AD04FF445
:10064000807006430DB3A5F14100192802D820356A
:1006500046F400664A462946204626604E46FFF785
:10066000EDFD80B101280BD0F61D26F0070000F14A
:10067000080956E74020E4E78020D8E70020D6E7C5
:1006800006F104094DE7284652E7206ABDE8F09FCD
:10069000D253000010B5431C02E010F8011B71B1E9
:1006A0008107FAD14FF0013202C88C1A8C4314EA48
:1006B000C211F9D0C01A0A0603D0C01E10BDC01A5C
:1006C00010BD0A0401D0801E10BD0902FCD0401EDE
:1006D00010BD4FF000020429C0F0128010F0030C8E
:1006E00000F01B80CCF1040CBCF1020F18BF00F825
:1006F000012BA8BF20F8022BA1EB0C0100F00DB8D4
:100700005FEAC17C24BF00F8012B00F8012B48BF31
:1007100000F8012B70474FF0000200B513469446D5
:100720009646203922BFA0E80C50A0E80C50B1F149
:100730002001BFF4F7AF090728BFA0E80C5048BF5D
:100740000CC05DF804EB890028BF40F8042B08BFFB
:10075000704748BF20F8022B11F0804F18BF00F8F7
:10076000012B70474FF0013C50F8042B51F8043B2B
:100770009A4221D1A2EB0C03934313EACC1317D175
:1007800050F8042B51F8043B9A4215D1A2EB0C030C
:10079000934313EACC130BD150F8042B51F8043BCC
:1007A0009A4209D1A2EB0C03934313EACC13DBD09A
:1007B0004FF00000704700BFD01A01BAB1FA81F1C2
:1007C00001F0180122FA01F0CB40C1F12001DBB2A7
:1007D000C0B2C01A2CFA01F3D11A914311EAC31125
:1007E000E6D1704770477047704770B50446856919
:1007F0000068C10601D5302600E02026C00707D0DA
:1008000070BDD4E9012130469047206A401C206227
:100810006D1EF6D570BD70B5044685690078C007B9
:1008200007D170BDD4E9012120209047206A401CE7
:1008300020626D1EF6D570BD09684A0501D540B22B
:100840007047C905FCD500B2704709684A0501D553
:10085000C0B27047C905FCD580B2704770B50C4670
:100860000546012A05D02878800600D5EA690023CC
:1008700002E0012305E05B1C934202D2E05C002809
:10088000F9D1A869E618C01AA861286A1844286234
:100890002846FFF7AAFF04E0D5E9012114F8010B6F
:1008A0009047B442F8D32846FFF7B5FF70BD2DE955
:1008B000F0470D4699469246044600F12408016827
:1008C000880604D5E06921F01001216000E00120D4
:1008D000A84201DD471B00E00027A1697A1902EB5D
:1008E0000900081AA0612078C00602D42046FFF74C
:1008F0007CFF002608E0D4E901211AF806009047A1
:10090000206A401C761C20624E45F4DB2078C0062D
:100910000AD52046FFF769FF06E0D4E9012130201F
:100920009047206A401C2062381EA7F10107F4DCC2
:1009300007E0D4E9012118F805009047206A401C1F
:100940002062281EA5F10105F3DC2046FFF763FFB6
:100950002078000602D50220BDE8F0870120FBE7E1
:1009600011680268006A530501D508700AE0D305D2
:1009700001D5088006E0130603D5C217C1E90002BD
:1009800000E008600120704770472DE9FF4F0C46DA
:100990001E464FF0FF378BB0D2E90001DDF86080D2
:1009A0000A908A46C1F30A5505B93D46002108461A
:1009B0004FF00000BAF1000F00F4400005DA00EB40
:1009C00080004FF4400101EA50004FEA9059B9F11C
:1009D000010F00DDB9460A9850EA4A000ED044F6ED
:1009E0001050A5F2FF3545432F14B8F1000F1ED06B
:1009F0007542291E1EDDC9F100021CE0B8F1010F8D
:100A00004FF0000001D0302103E0F24305E0215413
:100A1000401CB042FBDB30460022002121540B99E0
:100A2000C1F80880C1E900200FB0BDE8F08FBD1B00
:100A30006D1CDEE74A4600DA694206A800F028FD90
:100A400006AB93E8070003AB83E8070050460A991A
:100A500000F0EEFD8DE80700A0F500501F38009073
:100A60000398002D0ADD42F21F014A460844002384
:100A700003A90390684601F057F809E0A0F500507B
:100A80004A461F38002303A90390684601F061F825
:100A90008DE807000004000C03D04FF0FF30410840
:100AA00000E01046B8F1000F03D000220092154676
:100AB0001EE0751E05D400F0BBFA303262556D1E83
:100AC000F9D5B3460122084302D000227F1C04E07E
:100AD0002078302801D100227F1E002A099784D077
:100AE0001DE0112D07DA00F0A3FA303262556D1CBB
:100AF00050EA0102F5D1084302D00098C8B10EE0D7
:100B00000021681E05E0235C625C63542254401E91
:100B1000491C8142F7DBAB46A81B401E0990002010
:100B200004F80B000B98099AC0F80880C0E9002B64
:100B30007AE711264FF0000857E72DE9F04F884675
:100B40000446D21D22F0070191B0D1E90001CDE9A0
:100B50000A0103F066FD02460B98C00F01D02D205C
:100B600007E02068810701D52B2002E0202101EA5F
:100B7000C000032A099001D0072A05DB034641463D
:100B8000204600F019FC0BE12078800601D5E069D1
:100B900000E00620B8F1650F814606D0B8F1660F77
:100BA00018D0B8F1670F70D131E00020B9F1110F02
:100BB000009001DB112301E009F101030AAA01A958
:100BC0000CA8FFF7E2FEDDE90C70002609F1010533
:100BD000834647E001204B4600904FF000470AAAA9
:100BE00001A90CA8FFF7D1FEDDE90DB00C995D4617
:100BF000002610B909F101000D18B9EB050003D466
:100C0000C0F1FF3609F10105A5EB09002BE0B9F1B0
:100C1000010F01DA4FF001090020B9F1110F009026
:100C2000484601DD112300E003460AAA01A90CA8E9
:100C3000FFF7ABFEDDE90C704D46002683462078B9
:100C400000070AD4AB4500DA5D4601A8012D04DD9A
:100C5000411911F8011C302907D04F4502DA17F16C
:100C6000040F04DA012082460FE06D1EEEE7002F2C
:100C700002DCED1B3E4403E0781CA84200DD7D1C35
:100C8000B81B00F1010A4FF000472078000703D499
:100C9000AA4501DB4FF0FF3A0021B7F1004F0DF1FB
:100CA00043088DF8431024D002202B23002F01DAB3
:100CB0007F422D230A21021EA0F1010000DC5FB15A
:100CC00097FBF1FC97FBF1F201FB1C7C17460CF142
:100CD000300C08F801CDEEE7A8F10100037021887F
:100CE000090501D5452100E06521A0F1010800F8C2
:100CF000011C09980FA9A1EB0807FF1D00B10120F5
:100D0000411901EBEA70A1693844081A401EA0613C
:100D10002078C00602D42046FFF767FD099828B165
:100D2000D4E901219047206A401C20622078C00647
:100D300022D52046FFF759FD1EE0002E04DBB34507
:100D400002DD01A8805D00E03020D4E90121904758
:100D5000206A401C2062761CAAF101005FEA000AAA
:100D60000AD100F061F9C0680168405CD4E9012152
:100D70009047206A401C2062281EA5F10105DCDC9A
:100D800007E0D4E9012118F8010B9047206A401CC4
:100D90002062381EA7F10107F3DC2046FFF73BFD78
:100DA000032011B041E6000001694A1C0261087885
:100DB000704700B58FB0CDE901310021059105499B
:100DC0007944CDE9031011466846FFF79FFB0FB049
:100DD00000BD0000E5FFFFFF0A6802F8010B0A6092
:100DE000704700002DE9FF5F15468A460446DFF88C
:100DF000AC80F8440027D8E900103E46CDE9001049
:100E000010E03AF816106A4602A800F0B3FB411C45
:100E100007D02178890603D5E269391891420DD8A7
:100E20000744761C2078800602D5E069B84205DDCB
:100E3000AE42E6DB3AF816000028E2D1A069C01BFA
:100E4000A0612046FFF7D1FCD8E90010CDE90010E1
:100E5000002017E03AF818106A4602A800F08AFB52
:100E6000B0F1FF3F81460BD000250DF1080B05E0E6
:100E7000D4E901211BF8050090476D1C4D45F7D3BF
:100E800008F10100B0428046E4DB206A3844206269
:100E90002046FFF7C0FCBDE8FF9F00000E4B00009E
:100EA0002DE9F0418046D21D22F007020025D2E94B
:100EB0000002F52915A614D0011E72F1000106DA10
:100EC0000023D0EB030063EB020211A608E0D8F880
:100ED00000108B0701D50FA602E0490701D50EA629
:100EE00001251146002408F1240704E000F0A0F8D1
:100EF00030323A55641C50EA0102F7D12B46324693
:100F000021464046BDE8F041FFF7D1BC000000009B
:100F10002D0000002B0000002000000030B4002154
:100F200000F1240408E002F00705D208303542EA57
:100F30004372DB086554491C52EA0305F3D1046887
:100F4000002310A2250707D5A40600D421B1C46947
:100F500001230DA2641EC46130BCFFF7A8BC10B50C
:100F6000044621461068FFF770FC02462046BDE8A3
:100F700010400023D2E7D21D22F00701D1E900235F
:100F8000CCE700000000000030000000F0B40D4687
:100F90000188090502D5214C7C4402E01F4C7C44A9
:100FA0000E34002100F1240608E002F00F071209B8
:100FB000E75D42EA03721B097754491C52EA0307B2
:100FC000F3D102780023120704D5702D06D009B1A1
:100FD000022311342246F0BCFFF769BC0123103410
:100FE000F8E770B504460D4621461068FFF72DFC62
:100FF000024629462046BDE870400023C6E7D21DC0
:1010000022F00703D3E90023C0E70368126843F026
:10101000200303600823C3610023B7E77049000081
:1010200000487047943A002000487047B43A0020C6
:1010300030B5B0F10A024FEA900E71F100034EEAAA
:10104000817EB0EB0E0061EB91014FEA101E4EEA7B
:10105000017E10EB0E0041EB11114FEA102E4EEA0B
:10106000016E10EB0E0041EB11214FEA104E4EEADB
:10107000014E10EB0E0041EB1141401841F100010F
:101080004FEAD00040EA41704FEAD10110EB8005F1
:101090004FEA810444EA907444EB01046D1944EB77
:1010A0000404521BA3414FF0000348BF0A3200D58D
:1010B00030BD401C41F1000130BD00002DE9F04F72
:1010C00004460D46D21D22F0070089B0D0E90097F2
:1010D0004846394603F0A5FA0246F80F01D02D2301
:1010E00007E02068810701D52B2302E0202101EAD7
:1010F000C0038DF820300BB1012000E00020032A4E
:10110000824601D0072A04DB2946204600F054F924
:101110003FE12078800601D40D2500E0E569C7F3A2
:101120000A560D2D49DA00214FEA175B08464FF0A9
:101130000000002F00F4400007DA00EB80004FF4BD
:10114000400100EBD07001EA60008115012901DD4A
:101150004FF0FF3100224FEA850CBCF1180F06D387
:101160001346ACF118004FF08052C24003E04FF438
:10117000801323FA0CF30CF10C0CBCF1200F04D3F8
:10118000ACF1200C09FA0CF001E007FA0CF0002990
:101190004FF0004801DD18B90FE00ED140450CD3E7
:1011A00019EB02095F4121B9404502D19F4329EA69
:1011B0000209BBEB175F00D0761C2088000502D522
:1011C0007B48784402E07A487844193808AA3023EA
:1011D00002F80A30037C0AF10101002E0AF1020A2A
:1011E00053546A4602DC4FF0300101E04FF0310108
:1011F0004FF001088DF8001002D0A6F2FF3603E090
:1012000059EA470100D06B4E002D02DC2178090716
:1012100004D54FF002082E218DF80110C44600219C
:101220000BE0C7F303433F01C35C491C6D1E02F88A
:101230000830052908F1010801DA002DF1DC002150
:101240000CE000EB1973491C1B786D1E082902F88D
:1012500008304FEA091908F1010801DA002DF0DC25
:1012600021688B0602D516E0A8F10108E04505DDEE
:1012700002EB080313F8013C302BF5D0B8F1000F56
:1012800009DD02EB080313F8013C2E2B03D10907FB
:1012900001D4A8F10108002D05DD3E2102F8081057
:1012A0006D1E08F10108407C002E02F8080008F1CC
:1012B000010804DA2D20764202F8080002E02B2013
:1012C00002F808000A214FF47A70864208F10108FA
:1012D0000BDB96FBF0F3303302F8083096FBF0F3AB
:1012E00008F1010800FB136601E0642E0CDB6420AA
:1012F00096FBF0F3303302F8083096FBF0F308F178
:10130000010800FB136601E00A2E06DB96FBF1F0F4
:10131000303002F8080008F1010896FBF1F001FBFB
:101320001060303002F80800A16908F1010808EBEC
:10133000050202EB0A00081AA0612078C00602D458
:101340002046FFF752FA216A08AE01EB0A0020623C
:1013500004E0D4E9012116F8010B9047BAF1010A23
:10136000F7D22078C00602D52046FFF73EFA6E4637
:1013700009E016F8010B3E280FD0D4E9012190476F
:10138000206A401C2062B8F10108F2D22046FFF723
:1013900042FA09B00320BDE8F08F206A2844206299
:1013A00003E0D4E90121302090476D1EEBD3F8E72C
:1013B0008147000002FCFFFF2DE9F0411F46044673
:1013C00003260168072A01F4006004DB08B116A5B2
:1013D00005E016A503E008B115A500E015A521F06C
:1013E00010002060A069C01EA0610FB1401EA06166
:1013F0002046FFF7FAF94FB1D4E90121384690476A
:10140000206A401C2062C01C206206E0206AFAE7C5
:10141000D4E9012115F8010B9047761EF8D2204639
:10142000FFF7F9F9BDE8F0814E414E006E616E00A4
:10143000494E4600696E660010B5436913B1AFF3BB
:10144000008001E0FFF70AFA012010BD127800F1D8
:1014500024010A7000224A700122EDE711684FF062
:10146000FF32E9E710B5436913B1AFF3008001E043
:10147000FFF7B8FC012010BD128800F1240182841E
:101480000022C2840122EDE711684FF0FF32E9E744
:101490002DE9F047814616468AB0354878440DC894
:1014A0008DE80D0032487844801C03AC0DC884E8F8
:1014B0000D0041F69B300844372190FBF1F290FB80
:1014C000F1F5A5F1800501FB12041B3C02D5644235
:1014D000012000E00020DFF898A080460027FA44B1
:1014E000AAF1BE0A0EE0E0070AD03246684607EBD2
:1014F000470101230AEB810100F02BFB8DE8070077
:1015000064107F1C002CEED1194F7F44AE3F19E0D0
:10151000E80715D007EB04100DF1180A90E80E004B
:101520008AE80E00C068F04201D19819089032464E
:10153000012306A903A800F00CFB03AB83E8070016
:101540006D10641C002DE3D14FF001033246694653
:10155000B8F1000F03A802D000F0E6FA01E000F0B5
:10156000F8FAC9E90001C9F808200AB0BDE8F08717
:101570003845000070B516460C46054600F040F8A8
:10158000036893F80101012806D0FF2C0FD8185DDD
:1015900068B101202C7070BDD3F807013246214696
:1015A00003F2071303442846BDE8704018474FF084
:1015B000FF3070BD70477546FFF732FDAE4605003F
:1015C0006946534620F00700854618B020B5FEF75F
:1015D000AFFEBDE820404FF000064FF000074FF08F
:1015E00000084FF0000B21F00701AC46ACE8C00941
:1015F000ACE8C009ACE8C009ACE8C0098D4670474A
:1016000010B5FFF711FD001D10BD00BFDD38000053
:1016100010B50446AFF300802046BDE81040FEF749
:1016200072BE000001491820ABBEFEE72600020092
:101630005FEA400C08BF91F0000F4FEA8C234FEA9D
:10164000C12243EA51514FEA1C5018BF00F5F04047
:101650004FEA300018BF41F000415FEA6C5C00F0D7
:101660002980BCF1FF3F08BF40F080407047130C59
:1016700006BF12044FF0100C4FF0000C130E04BF05
:1016800012020CF1080C130F04BF12010CF1040C30
:10169000930F04BF92000CF1020CD30F04BF520051
:1016A0000CF1010C11464FF00002A0F11F00A0EB5D
:1016B0000C00704711F0004F08BF704731F0004137
:1016C0003FF4D5AF0B0C06BF09044FF0100C4FF0E0
:1016D000000C0B0E04BF09020CF1080C0B0F04BF29
:1016E00009010CF1040C8B0F04BF89000CF1020CF2
:1016F000CB0F04BF49000CF1010CCCF12003A0EB8F
:101700000C0022FA03F302FA0CF241EA030100F1A1
:101710000100704720F07F4C80EA030023F07F47F0
:10172000ACEB070303F57C5300F0004003F1FF032B
:101730002DE980494FEA154B09B44FEA144325EAD5
:101740000B4E24EA03480FF2042606EB1327490840
:101750003E785FEA320203FB0667C7F5000707FB26
:1017600006F64FEA54374FEAD64606F1020607FB63
:10177000066CCCF1005C4FEA1C472CEA074C07FBD7
:1017800006F40CFB06F504EB15464FEA961634BF3B
:1017900000204FF000404FEAD13706FB07FC4FEA2C
:1017A0001C4C0CFB0BF7D21B03FB0CF761EB070186
:1017B0000CFB0EF7B0EB074072EB17420CFB08F77F
:1017C00034BFA2EB0742B2EB074261EB17414FEA8D
:1017D0000C444FEA910706FB07FC4FEA1C4C0CFB3C
:1017E0000BF7B0EBC74072EB573203FB0CF734BF7B
:1017F000A2EBC742B2EBC74261EB57310CFB0EF7CD
:10180000B0EBC70072EB57720CFB08F734BFA2EBCA
:10181000C702B2EBC70261EB5771039F4FEA8161C8
:1018200041EA921104EBCC044FEAD1374FEA8262CD
:1018300006FB07FC42EA90124FEA80604FEA1C4C1C
:101840000CFB0BF7D21B03FB0CF761EB07010CFB46
:101850000EF7B0EB074072EB17420CFB08F734BFF2
:10186000A2EB0742B2EB074261EB17414FEA8C55FE
:101870004FEA910704EB9C2406FB07FC4FEA1C4C43
:101880000CFB0BF7B0EBC74072EB573203FB0CF7C6
:1018900034BFA2EBC742B2EBC74261EB57310CFB3E
:1018A0000EF7B0EBC70072EB57720CFB08F734BFB2
:1018B000A2EBC702B2EBC70261EB577115EB4C25E7
:1018C0004FEA816141EA92114FEA82624FEAD137D1
:1018D00042EA901206FB07FC44F100044FEA8060E4
:1018E0004FEA1C4C0CFB0BF7D21B03FB0CF761EB14
:1018F00007010CFB0EF7B0EB074072EB17420CFB35
:1019000008F734BFA2EB0742B2EB074261EB174185
:1019100015EB1C154FEA813141EA92414FEA8232C0
:1019200042EA90424FEA80304FEA0C7644F10004DC
:1019300048EA03434EEA0B484FF0000EB2EB080CA6
:1019400071EB030724BF624639464EEB0E0E4FF093
:10195000000B0018524149414BEB0B0BB2EB080C4A
:1019600071EB03077BF1000B24BF624639464EEB57
:101970000E0E4FF0000B0018524149414BEB0B0B80
:10198000B2EB080C71EB03077BF1000B24BF62463E
:1019900039464EEB0E0E51EA020718BF46F001061B
:1019A00016EB0E7655F1000254F1000103D5BDE8A7
:1019B0008901BDE80088BDE88901BDE80048B61985
:1019C000524141EB0101A3F10103704780807F7E0A
:1019D0007D7C7B7A797877767675747372717170A5
:1019E0006F6E6E6D6C6C6B6A6A6968686766666557
:1019F0006464636362616160605F5F5E5E5D5D5CE5
:101A00005C5B5B5A5A595958585757565655555555
:101A10005454535352525251515050504F4F4F4EB5
:101A20004E4D4D4D4C4C4C4B4B4B4A4A4A49494903
:101A30004848484747474746464645454544444445
:101A4000444343434342424242414141002B9C466E
:101A500030D477002BD01CB54FEA370703B44FF0D2
:101A600010004FF01001BAF1000F06D0BCF1000FCA
:101A7000DCBF40F0080040F008014FF000000FBC50
:101A8000BDE810400BF1010BBBF1010F08BF5FEA8D
:101A9000170722BF12F1010211F101014FF00041BD
:101AA00043F1000300F0004043EA00007047F9D31F
:101AB0005708D0E746EA064613F1400F4FEA1646AC
:101AC0001FDD13F1200FDFBF16430A46002120332C
:101AD0005B42BED0C3F1200746EA064602FA07F78A
:101AE0004FEA164646EA0706C3F1200722FA03F238
:101AF00001FA07F721FA03F14FF0000342EA070267
:101B0000A7E746EA020646EA06464FEA164646EACE
:101B10000106BCBF46EA0646360C4FF000034FF004
:101B200000024FF0000194E72DE9804C9A4693465D
:101B300070B491E8380007C831EA400C48BF34EA75
:101B4000430C03D5FFF7E6FDFFF780FFF0BCBDE8CF
:101B5000008C2DE9804C9A46934670B491E8380089
:101B600007C810F0804F08BF13F0804F03D100F07A
:101B700005F8FFF76BFFF0BCBDE8008C20F07F4755
:101B800080EA030023F07F4C07EB0C03A3F57C53A2
:101B900000F00040A3F1FE0392F0000F00F0B380CC
:101BA00095F0000F00F077802DE901494FEA1140D0
:101BB0004FEA144621EA004800FB06FC24EA0647E7
:101BC00008FB06F607FB08F800FB07F718EB0648CA
:101BD0004CEB164C4FEA124B18EB07484FEA1546F0
:101BE0004CEB174022EA0B4E0BFB06FC25EA06479E
:101BF0000EFB06F607FB0EFE0BFB07F71EEB064E71
:101C00004CEB164C4FF000061EEB074E4CEB174BFF
:101C100018EB0B0840F1000018EB0E0B58EB000816
:101C200040F100008F1A4FF000013CBFC943661B12
:101C300014BFB5EB040C00213CBFC943F61B4FEAAF
:101C400017444EEA8E0E27EA04454FEA1C4704FB70
:101C500007622CEA074C05FB07F70CFB05F604FBB3
:101C60000CFC16EB074642EB174216EB0C4642EB18
:101C70001C421BEB060658EB0202414146EA9E0657
:101C800001D5BDE80189B619524141EB0101A3F12B
:101C90000103BDE801894FEA14454FEA114724EAE0
:101CA000054621EA074C05FB07F406FB07F70CFB8A
:101CB00006F105FB0CFC11EB074144EB17444FEA1E
:101CC000124711EB0C4144EB1C4422EA074C05FB84
:101CD00007F206FB07F70CFB06F605FB0CFC16EB00
:101CE000074642EB174216EB0C4642EB1C456A18BE
:101CF00054F1000148BF7047B619524141EB010150
:101D0000A3F10103704795F0000F37D04FEA11425D
:101D10004FEA144721EA024624EA074C02FB07F186
:101D200006FB07F70CFB06F402FB0CFC14EB074464
:101D300041EB17414FEA154714EB0C4441EB1C41B2
:101D400025EA074C02FB07F506FB07F70CFB06F636
:101D500002FB0CFC16EB074645EB174516EB0C4651
:101D600045EB1C42121951F1000148BF7047B619EA
:101D7000524141EB0101A3F1010370474FEA1445C1
:101D80004FEA114724EA054621EA074C05FB07F113
:101D900006FB07F70CFB06F24FF0000605FB0CFCF8
:101DA00012EB074241EB174112EB0C4251EB1C4185
:101DB00048BF7047921841EB0101A3F1010370473E
:101DC000F8B5184C00250646256115486561206068
:101DD000204601F0DFF908B100F0D1F911208DF8AB
:101DE00000008DF80160104E00220821304600F0FE
:101DF0008CFE4FF0FF33022269460A4801F05CFA7C
:101E000001220821304600F080FE0220C4E90405CA
:101E1000044801F0BFF9002801D000F0B0F9F8BD86
:101E200000300140FC3800200000024030B40024A3
:101E300000F0010044EA002001F0030140EA8110B3
:101E400002F0010140EA411003F0010140EA4100C3
:101E500030BC40F4005000F03FB8000070B59FED7A
:101E6000181B51EC100B2DED028B53EC112B9FED39
:101E7000128B03F003F953EC182B03F003FB03F070
:101E800055FAC0F30D01C0F38D3040F4804441F4A5
:101E900080454FF4045000F01FF8284600F01CF86D
:101EA000204600F019F8BDEC028B4FF40050BDE85D
:101EB000704000F011B8000000000040E17A644179
:101EC0000000000080842E4101221021014800F012
:101ED0001CBE00000000024038B5010A8DF8001059
:101EE000094C8DF8010000221021204600F00DFE63
:101EF00002231A466946054801F0DEF90122102145
:101F0000204600F002FE38BD00000240FC380020F0
:101F100010B50146806B026C12F0500F05D0026CB8
:101F2000D20626D500F0F1F910BD016C41F4007124
:101F3000016401688A6812F0405F17D1027EAAB975
:101F4000CA6A12F4700F02D08A6852050ED44A6829
:101F500022F020024A60016C21F480710164016C5E
:101F6000C90403D4016C41F00101016400F00AF9D5
:101F700010BD806BC26CBDE810400846104710B51C
:101F8000806B40210164416C41F00401416400F028
:101F9000BCF910BD10B5806B00F0B6F910BD0000A3
:101FA000464910B54A6822F440324A604A6843689C
:101FB0001A434A6001684A6822F480724A600168E4
:101FC0004A68036942EA03224A6001684A6822F0CB
:101FD00040724A6001684A6883681A434A6001682F
:101FE0008A6822F400628A6001688A68C3681A43BA
:101FF0008A60816A6FF07062D14201688A6822F05B
:1020000070628A6001688A680CD0836A1A438A60A9
:1020100001688A6822F040528A6001688A68C36A4F
:102020001A4301E022F040528A6001688A6822F077
:1020300002028A6001688A68037E42EA43028A607B
:1020400090F82010002901684A680FD042F400621D
:102050004A6001684A6822F460424A6001684A683E
:10206000174C436A04EB43331A4301E022F4006245
:102070004A600168CA6A22F47002CA620168CA6AC8
:10208000838B104C04EB03531A43CA6201688A68BD
:1020900022F400728A6001688A6890F8303042EA5F
:1020A00043228A6001688A6822F480628A6001683B
:1020B0008A68406942EA8020886010BD00230140A0
:1020C00000E0FFFF0000F0FFFEE70000014800F025
:1020D0009BBA00009C38002001681823CAB2103A4D
:1020E000B2FBF3F2054B6FF30901032A9B5CC36556
:1020F00000D9091D8165084670470000D2580008C4
:1021000010B5014600208B698A6A4FF0C07453B144
:10211000B3F5005F15D072B1012A0CD0022A0AD0A3
:10212000032A09D104E01AB1012A06D0022A03D1F8
:10213000C96AC90100D5012010BDC96AA142FAD0FF
:1021400010BD002AF7D0012AF2D0022AF3D0032AC8
:10215000F3D010BD30B50468256825F480252560CE
:10216000046863608368402B036803D0996000684B
:10217000C26030BD9A600068C16030BD704772B601
:10218000FEE70000F0B5006848498DB0884275D17F
:102190009FED470B484C53EC102B94ED040B51EC86
:1021A000100B02F0B7FE41EC100B84ED040B03F0B2
:1021B000EDF803F018F941EC100BFFF74FFE94ED2A
:1021C000040B51EC100B03F0E1F803F00CF941ECB7
:1021D000100BFFF743FE0023384E4FF48052194690
:1021E00041F2883736F81100984200D903469042F0
:1021F00000D20246324D491CB942F3D3981A00EE80
:10220000100ADFED300A9FED301AB8EEC00A60EE1A
:10221000200A80EE810A84ED030AE08805EB800144
:10222000401C81ED000A9FED290BE08053EC102B40
:1022300094ED040B51EC100B03F022FA33D8002676
:102240002670E188284602F01BFA9FED220AE680FC
:1022500000214FF47A7200BF05EB8103491C83ED26
:10226000000A9142F8DB012809D0022809D003288E
:1022700009D0042809D0052809D00CE013E016A1E4
:1022800006E017A104E018A102E019A100E01AA1DC
:102290006846FEF7E9F8694619A001F05FFD694656
:1022A00017A001F05BFD0DB0F0BD00000020014063
:1022B000000000000000694000000020A401002090
:1022C000B42800203333534000F07F450000000065
:1022D000004CED400000000047414F544F4E470076
:1022E0004449544F4E470000444149544F4E470023
:1022F0004441495A485500004552524F520000008F
:102300007432302E747874007047704770B50400D2
:102310004FF0000503D0206C002610B107E001202B
:1023200070BD204600F01CF8666484F83C60206CA8
:10233000C00610D4206C20F4885040F002002064C5
:102340002046FFF72DFE6664206C20F0020040F06E
:102350000100206400E0012584F83C60284670BD3F
:1023600070B586B0064614216846FEF7D4F91D49BB
:102370003068884233D11C480025016841F48071DF
:102380000160006800F480700590174814380168F7
:1023900041F0010101600068694600F0010005900C
:1023A000012000900320CDE90105104800F0B0FAAB
:1023B000104C0F48C4E900050015A560C4E903509E
:1023C000400060618000C4E9060525622046656220
:1023D00000F0EAF908B1FFF7D2FEB463A66306B0D5
:1023E00070BD00000020014044380240000002405F
:1023F000106402409C380020F8B50E4600210446C7
:10240000009190F83C0013460A46012807D00120AD
:1024100084F83C0020688568ED0702D011E00220B6
:10242000F8BD856845F0010585604048404D00686D
:10243000B0FBF5F000EB400000E0401E00900028EB
:10244000FBD120688568ED0503D5856825F4807586
:10245000856020688568ED075DD0226C40F20165DB
:10246000AA4342F4807222644068400505D5206C7E
:1024700020F4005040F480502064206CC00404D547
:10248000606C20F00600606400E0616484F83C1039
:10249000A16B2948274DC863A16B28480864A16B2C
:1024A0002748C86421686FF02200086020684168EE
:1024B00041F0806141602068816841F480718160F1
:1024C000216832464C31A06B00F0D8F902466868AA
:1024D0001C49C006206806D0884224D1816811F0CA
:1024E000405F13D01FE08842F8D0174B984203D1C9
:1024F000D1F80433DB06F1D0144B984213D1D1F854
:10250000041301F01F011029E8D30CE0816841F0A9
:102510008041816007E0206C40F010002064606C16
:1025200040F0010060641046F8BD000098010020F2
:1025300040420F0000230140111F0008951F0008B2
:102540007F1F0008002001400021014000220140BF
:102550002DE9F0410446876D00F0DCFA064694F858
:1025600035000025022806D08020606584F83450AC
:102570000120BDE8F0812068016821F016010160AA
:102580002068416921F080014161206C08B9A06C8C
:1025900020B12068016821F008010160206801680D
:1025A00021F0010101600CE000F0B4FA801B052865
:1025B00007D920206065032084F8350084F8345062
:1025C000D7E720680068C007EED194F85C103F2080
:1025D0008840B860012084F8350084F83450002029
:1025E000C7E790F83510022903D08021416501200A
:1025F0007047052180F835100068016821F001015D
:1026000001600020704700002DE9F84304464FF0B8
:102610000009CDF8009063484FF41651A56D00688D
:10262000B0FBF1F72E6894F85C10082000FA01F175
:1026300031420FD021680A6852070BD50A6822F090
:1026400004020A6094F85C108840A860606D40F055
:102650000100606594F85C104FF0010808FA01F081
:10266000304208D021684969090604D5A860606D28
:1026700040F00200606594F85C100420884030420D
:1026800008D021680968890704D5A860606D40F00A
:102690000400606594F85C1010208840304218D027
:1026A00021680968090714D5A860206801684903F2
:1026B00004D50068000308D5A16C07E00168C905CE
:1026C00003D4016821F008010160216C09B12046A2
:1026D000884794F85C1020208840304231D021682F
:1026E0000968C9062DD5A86094F83500052820682A
:1026F000016806D0490347D5006800031DD4616C0A
:102700001CE021F0160101602068416921F0800180
:102710004161206C08B9A06C20B12068016821F0EB
:102720000801016094F85C103F208840A86084F89C
:10273000358084F83490216D1FE0E16B09B12046AB
:102740008847606D00282BD0606DC00714D005202D
:1027500084F835002068016821F0010101600098CB
:10276000401C0090B84203D820680068C007F6D12A
:1027700084F8358084F83490E16C002910D001B0E1
:102780002046BDE8F04308470168C905D5D4016873
:1027900021F01001016084F8358084F83490CCE792
:1027A000BDE8F883980100202DE9F041044600F0CF
:1027B000B1F906465CB1022084F83500002584F8A2
:1027C00034502068016821F0010101600DE0012012
:1027D000BDE8F08100F09EF9801B052805D9202076
:1027E0006065032084F83500F2E720680068C007C0
:1027F000F0D12268116820480140D4E90103184350
:10280000D4E903363343184363691843A369184373
:10281000E3691843236A18430843616A042903D112
:10282000D4E90B1319430843106020684069666AB5
:1028300020F0070130460E43012704280CD1A06A7E
:102840000643E06A40B12046FFF75AFC20B1402021
:10285000606584F83570BAE7206846612046FFF766
:102860003BFC94F85C203F2191408160656584F8D1
:1028700035700020ACE700003F8010F02DE9F041FA
:102880000446866D90F83400002501280DD0012003
:1028900084F8340094F835700020012F07D084F8B4
:1028A000340002252846BDE8F0810220FBE702271C
:1028B00084F8357060652046FFF74CFC94F85C1096
:1028C0003F208840B0602068016841F01601016037
:1028D000206C20B12068016841F008010160206887
:1028E000016841F001010160DCE7000070B50446B9
:1028F00000F010F90546601C02D00448007804443A
:1029000000F008F9401BA042FAD370BD8C010020F2
:102910002DE9F84FDFF8BCA10022012503264FF076
:102920000F090AF1040BAAF1040E00BF0B6805FAA7
:1029300002F42340A34270D10F7907F00307012F5F
:1029400001D0022F16D187684FEA420806FA08FC28
:1029500027EA0C07D1F80CC00CFA08FC4CEA070C6B
:10296000C0F808C04768A7430C79C4F3001494402A
:102970003C4344600C79E443A4070AD0C4684FEA9E
:10298000420C06FA0CF7BC438F6807FA0CF7274392
:10299000C7600C7904F00304022C12D1D40800EBB8
:1029A000840CDCF820405707FF0E09FA07F824EAE8
:1029B0000804D1F8108008FA07F848EA0408CCF8AF
:1029C000208004684FEA420C06FA0CF7BC430F79EA
:1029D00007F0030707FA0CF7274307604C6814F465
:1029E000403F70D03C4C276847F4804727602468FC
:1029F00022F0030704F480440094384C07EB040CE5
:102A0000DCF8084897074FEA177809FA08F7BC433B
:102A1000334FB84202D1002724E054E0314FB8428E
:102A200001D101271EE0304FB84201D1022719E041
:102A30002E4FB84201D1032714E02D4FB84201D1E7
:102A400004270FE02B4FB84201D105270AE02A4F97
:102A5000B84201D1062705E0284FB84201D1072727
:102A600000E0082707FA08F72743CCF80878DAF8D7
:102A700000405746D1F804C09C435FEACC2C00D5F7
:102A80001C433C60DBF800405F46D1F804C09C4327
:102A90005FEA8C2C00D51C433C60DEF80040774692
:102AA000D1F804C09C435FEA8C3C00D51C433C60D9
:102AB000084F083F3C68D1F804C09C435FEACC3C17
:102AC00000D51C433C60521C102AFFF42FAFBDE818
:102AD000F88F0000083C01404438024000300140BB
:102AE000000002400004024000080240000C0240C6
:102AF000001002400014024000180240001C024076
:102B00000069084000D0012070470AB18161704718
:102B10000904FBE701488068704700008C01002031
:102B20000248816802781144816070478C0100205E
:102B30000B4810B5016841F400710160016841F46F
:102B400080610160016841F480710160032000F040
:102B50006FF80F2000F006F800F024F8002010BDF8
:102B6000003C024070B50D4D04464FF47A71287850
:102B7000B1FBF0F00A490968B1FBF0F000F04FFC3E
:102B800048B9102C07D200222146501E00F030F820
:102B900000206C6070BD012070BD00008C01002021
:102BA000980100200A4808B5016841F4804101609D
:102BB000006800F4804000900548001F016841F063
:102BC00080510160006800F08050009008BD000056
:102BD00044380240002809DB00F01F020121914027
:102BE0004009800000F1E020C0F8001170470000AB
:102BF000F0B40E4B1B680C46C3F30223C3F1070568
:102C0000042D00D90425191D072901D2002300E055
:102C1000DB1E012606FA05F1491E214099409E401F
:102C2000761E16403143F0BC01F013BD0CED00E000
:102C3000064900F0070208684FF6FF03184040EA13
:102C40000220034A10430860704700000CED00E0CA
:102C50000000FA052DE9F0470E46050065D0DFF8C3
:102C60001481D8F80000F7B200F00700B04207D294
:102C700088F80070D8F8000000F00700B04254D186
:102C800028683D4C810712D5400703D5206840F4E1
:102C9000E05020602878000703D5206840F46040A9
:102CA00020602068A96820F0F000084320602878A0
:102CB000C0072DD0304968680839012812D0022891
:102CC00013D0032811D00968890700292DDA21685B
:102CD00021F0030101432160FFF71CFF814641F20F
:102CE000883A0EE009688903EFE709688901ECE793
:102CF000FFF710FFA0EB0901514502D90320BDE801
:102D0000F0872068696800F00C00B0EB810FEFD10C
:102D1000D8F80010404601F00701B14207D907700A
:102D2000006800F00700B04201D00120E7E72878F2
:102D3000400705D52068E96820F4E050084320608A
:102D40002878000706D52068296920F4604040EA09
:102D5000C100206000F038F82168084AC1F303116F
:102D6000515CC8400649086006480068FFF7FAFE53
:102D70000020C4E7003C024008380240DA5800084E
:102D80009801002090010020044805490068096866
:102D9000044AC1F38221515CC84070479801002069
:102DA00008380240EA5800080448054900680968E4
:102DB000044AC1F34231515CC84070479801002079
:102DC00008380240EA580008154810B5006810F0AD
:102DD0000C02144813D04110042A0FD0082A0ED137
:102DE0000F4C241F2268236802F03F025B0207D5C4
:102DF0002068C0F38810A0FB010106E0084610BD62
:102E00002168C1F38811A1FB00010023FDF7A2FA9C
:102E10002168C1F30141491C4900B0FBF1F010BD2C
:102E2000083802400024F4002DE9F84F04006ED069
:102E30002078DFF84C93C007A9F104054AD009F1C6
:102E400004000168C1F38101012908D00068C0F3C2
:102E5000810002280AD1D9F80000400206D528686E
:102E6000800337D560680028E1D033E06068B0F5B2
:102E7000803F10D0B0F5A02F286810D020F480300B
:102E80002860286820F4802028606068A8B1FFF7D7
:102E900041FE06460DE0286840F48030F4E740F437
:102EA00080202860F7E700BFFFF734FE801B64280E
:102EB00073D828688003F7D50CE0FFF72BFE064691
:102EC00005E000BFFFF726FE801B6428F0D82868C5
:102ED0008003F7D42078DFF8AC8280074FF0000A37
:102EE0003ED5A748001D016811F00C0F08D00068FE
:102EF000C0F3810002280BD1D9F80000400207D4AA
:102F00002868800716D5E068012800D112E033E177
:102F1000E068B8B10120C8F80000FFF7FBFD0646E5
:102F200005E000BFFFF7F6FD801B0228C0D8286827
:102F30008007F7D52868216920F0F80040EAC10031
:102F400028600DE0C8F800A0FFF7E4FD064604E0A5
:102F5000FFF7E0FD801B02281FD828688007F7D400
:102F60002078000722D5864F87486169703771B194
:102F700001210160FFF7CEFD064604E0FFF7CAFD20
:102F8000801B022809D838688007F7D50EE0C0F802
:102F900000A0FFF7BFFD064605E082E0FFF7BAFD9F
:102FA000801B02287DD838688007F7D42078400736
:102FB00068D5DFF8CCB100270BF13C0BDBF8000043
:102FC000C0000BD4DBF8001041F08051CBF80010AA
:102FD000DBF80000012700F0805000906B4E306855
:102FE000C00510D4306840F480703060FFF792FD67
:102FF000009005E0FFF78EFD0099401A022850D896
:103000003068C005F6D55E4EA0686C3601280FD03A
:103010000528306810D020F001003060306820F0C2
:1030200004003060A068B8B1FFF774FD00900FE0B5
:10303000306840F00100F4E740F004003060F7E74A
:10304000FFF768FD0099411A41F28830814266D845
:1030500030688007F4D50EE0FFF75CFD009007E0D4
:10306000FFF758FD0099411A41F28830814256D845
:1030700030688007F4D42FB1DBF8001021F08051C4
:10308000CBF80010A069C8B33D49091D0968C1F318
:10309000810102294AD00228504607D0C8F86000B2
:1030A00000E03CE0FFF736FD04463BE04746C8F849
:1030B0006000FFF72FFD064605E000BFFFF72AFD81
:1030C000801B02282BD828688001F7D4D4E9070197
:1030D0000843A16A2E4A490802EB0141626A41EAAB
:1030E0008211084394F82C1040EA0161C9F80010DD
:1030F00001203866FFF70EFD044606E03EE000BF03
:10310000FFF708FD001B022809D828688001F7D5C1
:1031100034E000BFFFF7FEFC001B022802D90320A9
:10312000BDE8F88F28688001F4D427E00128F7D0A3
:10313000D9F80000E26900F4800191421CD1226AB2
:1031400000F03F01914217D147F6C071626A014019
:10315000B1EB821F10D1A26A4FF0FF3300F440316F
:1031600003EB5202B1EB024F06D194F82C1000F0A1
:103170007060B0EB016F01D00120D1E70020CFE7F4
:103180000438024000004742800E47420070004071
:103190000000FFFF70B5040009D0606A002540B14F
:1031A00025616561A56294F8510040B10CE00120F1
:1031B00070BD6068B0F5827FF4D0E561F2E784F815
:1031C0005050204600F044F8022084F85100206856
:1031D000016821F040010160A088218900F482701B
:1031E00001F404410843A18901F400610843217CF2
:1031F00001F002010843217D01F001010843218B08
:1032000001F400710843217F01F03801084394F86C
:10321000201001F080010843218D01F40051084382
:1032200021680860A069042101EA104094F8241084
:1032300001F010010843216848602068C16921F449
:103240000061C1616565012084F85100002070BDF6
:1032500010B586B0044614216846FDF75CFA1349A0
:103260002068884220D112480021026842F480522E
:103270000260006800F4805005900D481438026820
:1032800042F001020260006800F001000590E020B9
:1032900000900220CDE90101032003900520049055
:1032A00069460448FFF734FB06B010BD003001400A
:1032B00044380240000002402DE9F84F9846164677
:1032C0008A460446FFF726FC814694F851000128FF
:1032D0001ED1BAF1000F73D0002E71D094F85000B7
:1032E000012815D0012784F85070032084F851007C
:1032F00000256565C4F830A0A686E686A563A58787
:10330000E58765642564A068B0F5004F03D00CE044
:103310000220BDE8F88F2068016821F040010160BB
:103320002068016841F48041016020680168490615
:1033300003D4016841F040010160E068B0F5006F1E
:10334000606803D048B3012E27D047E008B1012EB2
:103350001FD1206B21680088C86006E02068816862
:10336000890709D5216B0988C160206B801C206307
:10337000E08E401EE0860CE0FFF7CCFBA0EB0901DD
:10338000414503D3B8F1FF3F03D035E0B8F1000F5A
:1033900032D0E08E0028E1D123E0206B2168007854
:1033A000087306E02068816889070AD5216B0978CF
:1033B0000173206B401C2063E08E401EE0860DE010
:1033C0002BE0FFF7A7FBA0EB0901414503D3B8F1C0
:1033D000FF3F03D010E0B8F1000F0DD0E08E0028C1
:1033E000E0D14A464146204600F002FE08B12020C6
:1033F0006065A06830B109E084F8517084F85050DD
:10340000032086E72068C1688068009084F85170C6
:1034100004F8505F60680028F3D0012079E710B508
:10342000401EB0F1807F01D3012010BD4FF0E02499
:1034300060610F21601701F00CF90020A0610720E6
:103440002061002010BD70477047000070B590F8F3
:103450003C20012A32D0012480F83C40022280F82E
:103460003D2003685A689D6822F070060A6832435E
:103470005A60134B02689A4214D0B2F1804F11D0B7
:10348000104B9A420ED0104B9A420BD00F4B9A42DF
:1034900008D00F4B9A4205D00E4B9A4202D00E4BE9
:1034A0009A4204D1496825F080031943916080F85D
:1034B0003D40002180F83C10084670BD022070BDE0
:1034C000000001400004004000080040000C0040E3
:1034D00000040140004001400018004010B5040005
:1034E00003D094F83D0010B107E0012010BD00208A
:1034F00084F83C00204600F01FF8022084F83D00CC
:10350000211D206800F068FE012084F8460084F840
:103510003E0084F83F0084F8400084F8410084F8BD
:10352000420084F8430084F8440084F8450084F89D
:103530003D00002010BD000008B501681448B1F13D
:10354000804F14D0134A914220D1016841F01001FC
:1035500001600068002200F0100000901146362043
:10356000FFF746FB3620BDE80840FFF733BB016894
:1035700041F0010101600068002200F001000090AC
:1035800011461C20FFF734FB1C20ECE708BD0000AF
:10359000403802400010004090F83D10012901D051
:1035A00001207047022180F83D100168CA6842F08E
:1035B0000102CA6000681149884214D0B0F1804FFE
:1035C00011D00F4988420ED00E4988420BD00E49C7
:1035D000884208D00D49884205D00D49884202D062
:1035E0000C49884204D1816801F00701062903D003
:1035F000016841F0010101600020704700000140B6
:103600000004004000080040000C0040000401409D
:10361000004001400018004070B5044690F83C009E
:103620000025012817D0012684F83C60022084F888
:103630003D002068826822F0770222F47F42826097
:103640000868502838D00DDC20284FD005DC90B316
:10365000102811D14AE0022070BD302846D0402801
:103660000AD13BE060282FD070280DD0B0F5805FE4
:1036700003D0B0F5005F12D0012584F83D60002032
:1036800084F83C00284670BDCB68D1E90121206850
:1036900000F00AFE2068816841F0770109E0CB68FC
:1036A000D1E90121206800F0FFFD2068816841F424
:1036B00080418160E1E719E0CA684968206800F04C
:1036C00005FE5021206806E0CA684968206800F0BD
:1036D0000EFE6021206800F0F1FDCEE7CA6849685F
:1036E000206800F0F3FD40212068F4E722680146DD
:1036F0001046F0E770472DE9F04104460068C668BF
:1037000005694FF00007A90713D5B10711D5F91EB8
:10371000016101202077206880698007204602D05F
:10372000FFF7E8FF04E000F07EF8204600F07CF8A8
:103730002777680716D5700714D521686FF0040045
:103740000861022020772068806910F4407F2046BD
:1037500002D0FFF7CFFF04E000F065F8204600F04C
:1037600063F82777280715D5300713D521686FF040
:1037700008000861042020772068C069800720467F
:1037800002D0FFF7B7FF04E000F04DF8204600F04C
:103790004BF82777E80616D5F00614D521686FF0A8
:1037A00010000861082020772068C06910F4407F6D
:1037B000204602D0FFF79EFF04E000F034F82046D8
:1037C00000F032F82777E80708D0F00706D0216824
:1037D0006FF001000861204600F028F8280608D59F
:1037E000300606D521686FF0800008612046FFF79B
:1037F0002AFE680608D5700606D521686FF04000DD
:103800000861204600F060F8A8060AD5B00608D581
:1038100021686FF0200008612046BDE8F041FFF705
:1038200013BEBDE8F08170477047000070B50068B6
:103830001F4988422CD11F4D10212846FFF760F9FF
:103840001D4C082120702846FFF75AF90021E0702E
:103850000B46012501EB41021019467826B1012ED5
:1038600006D0022E10D10AE0A25C6AB945700BE0C6
:10387000A25C0AB1437007E00222427004E0A25C3D
:10388000012A01D143708570491C0229E2DB70BD19
:10389000B0F1804FFBD1094800780128F7D1BDE88D
:1038A000704041F2883206490648FEF7A5BD000087
:1038B00000100040001002409E0100200000002087
:1038C000A401002054380020704770477047000062
:1038D000F8B5016804460868CA684B6910F00F0F14
:1038E0004FF0000559D003F0010602F490773743FA
:1038F00065D0C10705D0D10503D5616C41F0010148
:103900006164410705D5D90703D0616C41F002011C
:103910006164810705D5D90703D0616C41F00401CA
:103920006164010707D502F02001314303D0616CC7
:1039300041F008016164616C00293AD0800604D529
:10394000900602D5204600F029FD20684069616C90
:10395000C0F38010090700D460B3204600F0E0FCFB
:1039600020684069400621D52068143050E8001FC7
:1039700021F0400140E80012002AF5D1E06BA8B127
:1039800072490165E06BFEF72CFE002811D0E06B58
:10399000016D01B0BDE8F040084783060FD59306DE
:1039A0000DD52046BDE8F84000F0F8BC2046FFF7F2
:1039B0008DFFF8BD2046FFF789FF6564F8BD266BD3
:1039C0002023012E7ED1C6067CD5D6067AD508687E
:1039D0004868009048694FF0020640064DD5E26BFA
:1039E000106840684FF480770004000C3AD0A18D35
:1039F000814237D9E085D069B8422DD020680C309B
:103A000050E8001F21F4807140E80012002AF5D12F
:103A10002068143050E8001F21F0010140E8001236
:103A2000002AF5D12068143050E8001F21F0400131
:103A300040E80012002AF5D184F84230256320685E
:103A40000C3050E8001F21F0100140E80012002A5D
:103A5000F5D1E06BFEF77CFD6663A08DE18D401A29
:103A600081B206E0A18D8142A8D1D069B842A5D12A
:103A700066632046FFF729FFF8BDA08DE18D401A4F
:103A800081B2E08D0028F7D00029F5D020680C30F5
:103A900050E8002F22F4907240E80027002FF5D163
:103AA0002068143050E8002F22F0010240E800277F
:103AB000002FF5D184F84230256320680C3050E89F
:103AC000002F00E006E022F0100240E80023002B67
:103AD000F3D1CDE705062BD5150629D594F841007D
:103AE0002128C9D1A068B0F5805F01D12069B0B1AB
:103AF000206A411C2162216800784860E08C401EE9
:103B00000004000CE084B7D12068C16821F0800176
:103B1000C1602068C16841F04001C160F8BD206A01
:103B20000088C0F308004860206A801C2062E5E736
:103B30004006F3D55006F1D5CA68204622F040026F
:103B4000CA6084F8413000F007F9F8BD134300085B
:103B500070B5040004D094F84100002510B106E0CF
:103B6000012070BD84F84050204600F023F8242046
:103B700084F841002068C16821F40051C1602046EA
:103B800000F06EFC2068016921F490410161206819
:103B9000416921F02A0141612068C16841F4005166
:103BA000C1606564202084F8410084F842006563A8
:103BB000002070BD70B586B0044614216846FCF73D
:103BC000AAFD284E22680021274802230324072546
:103BD000B2421DD1244A1432166846F0100616600F
:103BE000126802F010020592026842F001020260BF
:103BF000006802AA00F00100059082E8320060022D
:103C0000CDE9000369461948FEF782FE06B070BD93
:103C1000174EB242FAD1144A1032166846F4802682
:103C20001660126802F480220592026842F00202D5
:103C30000260006802AA00F00200059082E83200EB
:103C40004FF44060CDE9000369460A48FEF760FE84
:103C5000002211462720FEF7CBFF2720FEF7BAFFF0
:103C6000D4E700000010014030380240000002405C
:103C7000004800400004024090F84230202B01D060
:103C80000220704721B11AB10023036300F06EBC1B
:103C9000012070470549064B48780A781A54401CA1
:103CA000487001220348FFF7E7BF00009C01002095
:103CB000743A00202C3A00202DE9F843044690F88D
:103CC0004100984616460D46202802D00220BDE845
:103CD000F88385B17EB100206064212084F8410022
:103CE000FEF718FFA6848146E684A0682027B0F579
:103CF000805F02D003E00120E9E7206910B12E4681
:103D000000250EE000260CE08021204600F049FC52
:103D1000A8B9C6B116F8010B21684860E08C401EB6
:103D2000E084E08C4B464FF00002CDF80080002884
:103D3000EAD14FF04001204600F033FC40B184F856
:103D400041700320C3E735F8020BC0F30800E3E736
:103D500084F841700020BAE7704700000A46014627
:103D600001A000F005BB000025733D22257322FF52
:103D7000FFFF0000FEE70000104810B50E4901608B
:103D80004FF480314160002181600122016102769F
:103D900080F820100A4BC0E90A31C261C16080F886
:103DA00030104261FEF7B2FA002803D0BDE810409F
:103DB000FEF7E5B910BD0000002001405438002096
:103DC0000100000F094808B5016841F48001016055
:103DD0000068002200F48000009011463820FEF7B1
:103DE00007FFBDE808403820FEF7F4BE3038024037
:103DF000F0B587B014216846FCF78DFC1D480024FF
:103E0000016841F010010160016801F010010591A5
:103E1000016841F080010160016801F080010591B5
:103E2000016841F001010160016801F001010591A3
:103E3000016841F00201016000680F4F00F00200CC
:103E40000590002218213846FEF75FFE1825CDE9BF
:103E500000540126694609480296FEF759FD00956F
:103E6000CDE90164694638460394FEF751FD07B079
:103E7000F0BD000030380240000002400010024057
:103E8000104810B50E4901604FF482714160002165
:103E900002228160C0E903121202C0E90512102259
:103EA000C0E90721416281620A21C162FFF772F90C
:103EB000002803D0BDE81040FEF761B910BD000036
:103EC00000300140FC38002010B586B000241748AF
:103ED000009401940294039404944FF0804105945B
:103EE000016040F69F71C0E901148910C0E9031414
:103EF00080218161FFF7F2FA08B1FEF740F94FF433
:103F00008050009069460948FFF786FB08B1FEF72C
:103F100036F92020CDE9040404A90448FFF796FAF5
:103F2000002801D0FEF72BF906B010BD543900204F
:103F30001CB500240F4800940D490194016040F223
:103F40001F31C0E9011440F2E7318461C160FFF71D
:103F5000C5FA08B1FEF713F90094694605480194C3
:103F6000FFF774FA002801D0FEF709F91CBD000024
:103F7000001000409C3900200C4810B50A4901602F
:103F80004FF4E1314160002181600C22C160C0E941
:103F900004128161C161FFF7DBFD002803D0BDE899
:103FA0001040FEF7ECB810BD00100140E4390020CD
:103FB0000C4810B50A4901604FF4E131416000211D
:103FC00081600C22C160C0E904128161C161FFF708
:103FD000BFFD002803D0BDE81040FEF7D0B810BDEB
:103FE000004800402C3A0020FEE7FEE77047000042
:103FF000F8B515460E460B460092044601220221F2
:1040000000F02CF8A0B9134813490068B0FBF1F098
:104010004FF47A71484300906068B0F5827F0DD10B
:104020003346002280212046009500F017F870B139
:10403000606D40F0200060650320F8BD009830B14D
:10404000401E009020688068C0430006F6D500201E
:10405000F8BD00009801002000366E012DE9F843FC
:104060001E46914688460446089DFEF753FD401BB8
:10407000351AFEF74FFD074626480068C0F3CB30DF
:1040800068430AE0701C09D0FEF744FDC01BA8423B
:104090000FD275B10098B8B3401E009020688168B7
:1040A00038EA010033D000214945EBD10020BDE8BA
:1040B000F8832068416821F0E00141606068B0F554
:1040C000827F0BD1A068B0F5004F02D0B0F5806FB1
:1040D00004D12068016821F040010160A06AB0F5B8
:1040E000005F09D12068016821F400510160206857
:1040F000016841F400510160012084F85100002062
:1041000084F850000320D2E7FFE70025C6E701212D
:10411000CAE70000980100207047FEF701BD0000CB
:1041200030B593B030216846FCF7F5FA14210CA89D
:10413000FCF7F1FA1C480025016841F0805101604C
:10414000006800F0805011901848016841F48041E7
:1041500001600068022400F480401190012000906A
:10416000000401908001CDE9064008AA04205021F6
:1041700082E813000B906846FEF756FE08B172B64F
:10418000FEE70CA90F2081E831004FF48050CDE903
:104190000F0502210CA8FEF75DFD002801D072B6C4
:1041A000FEE713B030BD0000403802400070004010
:1041B0000248016841F470010160704788ED00E039
:1041C0000148FFF798BA0000543900200148FFF772
:1041D00092BA00009C390020F0B50268274B284DA8
:1041E000284E294F294C4FF0804C984209D0604509
:1041F00007D0A84205D0B04203D0B84201D0A042B7
:1042000004D122F0700E4A6842EA0E0298421BD096
:10421000604519D0A84217D0B04215D0B84213D08B
:10422000A04211D01A4DA8420ED01A4DA8420BD070
:10423000194DA84208D0194DA84205D0184DA842E2
:1042400002D0184DA84203D122F44075CA682A430F
:104250004D6922F080022A438D68C5620D6885622F
:10426000984201D0A04201D109690163016841F07F
:1042700004010160012141610260F0BD00000140C4
:104280000004004000080040000C00400004014011
:104290000040014000440140004801400018004037
:1042A000001C00400020004010B5846842EA032250
:1042B00024F47F440A432243826010BD826822F0C6
:1042C00070020A4342F007018160704710B5036A2B
:1042D000046A24F001040462846924F0F00444EACE
:1042E000021423F00A020A438461026210BD10B571
:1042F000036A046A24F010040462846923F0A003B2
:1043000024F4704444EA023243EA011182610162FA
:1043100010BD10B5806B0021C185FFF7D7FA10BD25
:1043200001680C3151E8002F22F4907241E800231B
:10433000002BF5D10168143151E8002F22F0010261
:1043400041E80023002BF5D1016B012909D1016857
:104350000C3151E8002F22F0100241E80023002B1D
:10436000F5D1202180F84210002101637047000040
:104370000FB400B5A1B023AA68462299FCF762F8F1
:104380006846FCF787F982B2322369460248FFF794
:1043900093FC21B05DF814FB2C3A002008B590F88E
:1043A0004210222901D0022008BD82684FF48053B8
:1043B0009A4201D1016921B1816A9A421BD04AB166
:1043C0000AE00268816A5268C2F308020A80816AC0
:1043D000891C08E0026972B10268526802F07F022B
:1043E0000A70816A491C8162C18D491E0904090C49
:1043F000C18503D01BE002685268F1E70168CA6812
:1044000022F02002CA600168CA6822F48072CA6081
:1044100001684A6922F001024A61202180F84210B5
:1044200000214163026B012A03D0FFF733FC002017
:1044300008BD016301680C3151E8002F22F0100221
:1044400041E80023002BF5D101680A68D20602D5A5
:104450000A6849680091818DFFF737FAE7E70000A5
:1044600070B5044600680169E26821F440511143C7
:1044700001612169A068E269084361691143084349
:104480002168CA6849F20C639A430243CA602068F3
:104490004169A26921F440711143416131492068A9
:1044A000884202D03049884202D1FEF77DFC01E00B
:1044B000FEF76AFCE2690023192164253226B2F571
:1044C000004F626828D0A0FB0101930F9200FBF718
:1044D00041FF0146B0FBF5F06FF01802504301EBCD
:1044E000800006EB0010B0FBF5F000F0F002B1FB2D
:1044F000F5F002EB0012B1FBF5F06FF01803584332
:1045000001EB800006EB0010B0FBF5F000F00F00AF
:1045100021681044886070BDA0FB010192185B41C6
:10452000FBF718FF0146B0FBF5F00201B1FBF5F017
:104530006FF01803584301EB800006EBC000B0FB9E
:10454000F5F000F0F80002EB4002B1FBF5F0584343
:1045500001EB800006EBC000B0FBF5F000F00700B7
:10456000D6E70000001001400014014081628285FE
:10457000C28500214164222180F84210016921B1E5
:104580000168CA6842F48072CA6001684A6942F0F0
:1045900001024A610068C16841F02001C160002049
:1045A00070472DE9F843984617460D460446089E85
:1045B00024E0701C22D0FEF7ADFAA0EB0800B04258
:1045C0001AD8CEB12068C168490717D5802D15D0FB
:1045D000402D13D00168C94309070FD40168002595
:1045E000406800902046FFF79BFE0820606484F836
:1045F00040500120BDE8F8830320FBE720680068F5
:1046000035EA000004D00020B842D2D00020F1E703
:104610000120F9E70148FFF75BB900002C3A0020C0
:10462000FEE703B401984100009850EAC12018BF8A
:1046300004204A0D18BF40F0010040F2FF72B2EBB7
:10464000515F08BF40F00200012808BF052002B0FA
:1046500070470907090E002804DB00F1E02080F80C
:104660000014704700F00F0000F1E02080F8141DE6
:10467000704730380A2801D2012070470020704767
:1046800070B5052901DA002070BDF8EE000AB1EE20
:10469000041A002213E000BF00EB820393ED000A2E
:1046A000B4EEE00AF1EE10FA01DDF0EE400AB4EEED
:1046B000C10AF1EE10FA01D2B0EE401A521C8A4241
:1046C000EADB4FF0FF339FED1F0A01241A4620EE6C
:1046D000800A491E21E000BF00EB840555ED010A68
:1046E000F4EEC00AF1EE10FA09D295ED001AB4EE1C
:1046F000C01AF1EE10FA02DB5E1C00D12346F4EE84
:10470000C00AF1EE10FA07DDD5ED000AF4EEC00A9A
:10471000F1EE10FA00D82246641C8C42DCDB581CF7
:1047200005D0501C07D0934207DA032070BD521CFD
:1047300005D0022070BD012070BD042070BD052091
:1047400070BD0000F4FD343F054800218278012A45
:1047500000D181704279012A00D141717047000077
:104760009E0100202DED028BFEF7E2F9FFF7D8FC49
:10477000FFF73EFBFFF726FBFFF7DAFBFFF7FCFB3B
:10478000FFF716FCFFF7F8FAFFF79EFBFFF778FB41
:10479000FDF79AFB00231A4619461846FDF746FB1B
:1047A0009FED168BB0EE480AF0EE680AFDF756FB57
:1047B000B0EE480AF0EE680AFDF750FBC820FDF79E
:1047C000FFFAC820FDF7FCFA0E48FEF7E5FE0E489A
:1047D000FEF7E2FE01220D490D48FFF74DFA0D4D9F
:1047E000FFF7B2FF2C78002CFAD00120FEF77EF8FC
:1047F00028788442F4D100F02FF8F1E7000000009F
:1048000000408F409C390020543900209C0100203A
:104810002C3A00209D01002030B50E4A03460020AE
:1048200011785C1814F8014C7C2C01D1491E1170D0
:1048300001216FF02F05127809E05C5C2E2C05D069
:1048400000EB800005EB4000204480B2491C9142FF
:10485000F3DB30BD9D0100202DE9F043F848F94D10
:104860000A272DED028B8DB000784FF47A76303820
:104870004FF4FA694FF00008A5F1180404287DD818
:104880006070F1A16846FBF7EFFD607840B1012848
:1048900015D002281AD003284ED004285CD0E5E2B7
:1048A000FA20FDF78DFAFA20FDF78AFA6946E7A0AB
:1048B000FFF754FA6946E5A0FFF750FA97E069461A
:1048C000E4A0FFF74BFA6946E2A042E06946E3A0A4
:1048D000FFF744FA6946E1A0FFF740FA3246E1A14A
:1048E0006846A660FBF7C0FD6946E0A0FFF736FA10
:1048F000A06800F078FD41EC100BFDF7AFFAA0685E
:1049000000F071FD41EC100BFDF7A8FAD9A1684643
:10491000FBF7AAFDA77084F804806946D6A0FFF7CC
:104920001DFA2079284490F86C00FDF749FA2079A7
:10493000284490F86C0038E16279D1A1501C607174
:104940006846FBF791FD6946CFA0FFF707FA694675
:10495000CDA0FFF703FA89E26946CDA0FFF7FEF983
:104960006946CBA0FFF7FAF944F62060A0604846FC
:10497000FDF7BCFFA06800F036FD00E00FE041EC61
:10498000100BFDF76BFAA06800F02DFD41EC100B49
:10499000FDF764FA5020FDF713FA502005E1607826
:1049A00030B1012849D0022869D003287DD05DE2CA
:1049B000B9A1A348FBF7D6FEC8B1BAA1A048FBF73E
:1049C000D1FEB0B1BAA19E48FBF7CCFE58B3BCA152
:1049D0009B48FBF7C7FE40B3BCA19948FBF7C2FE5A
:1049E00028B3BDA19648FBF7BDFE18B33EE23246A0
:1049F00001E042F210729BA16846A260FBF734FD11
:104A00006946B9A0FFF7AAF9A06800F0ECFC41ECF8
:104A1000100BFDF723FAA06800F0E5FC41EC100B49
:104A2000FDF71CFA22E2B24AE5E7B24AE3E7A268E0
:104A30006432E0E7A268643ADDE7AFA18048FBF7A3
:104A400091FE002887D180A16846A660FBF70CFD87
:104A50006946ACA0FFF782F9A06800F0C4FC41EC05
:104A6000100BFDF7FBF9A06800F0BDFC41EC100B4A
:104A7000FDF7F4F93720FDF7A3F9372095E0A3A15E
:104A80006F48FBF76FFE6426002844D0A2A16C4853
:104A9000FBF768FE00285DD0A2A16948FBF762FE23
:104AA00000287CD0A2A1664800E0C0E1FBF75AFED6
:104AB000002875D0A2A16248FBF754FE4FF01409FC
:104AC00000286ED0A1A15E48FBF74CFE002869D0FB
:104AD000A1A15B48FBF746FE9FEDA28B002879D091
:104AE000A2A15748FBF73EFE002874D05448FFF7B8
:104AF00093FE322870D2A168B1FBF6F1491EC9B20B
:104B0000E1700A38C0B201EB4101207105EB81016F
:104B1000A070085C7CE0324652A16846A660FBF7B4
:104B2000A3FC694651A0FFF719F9A06800F05BFCEF
:104B300041EC100BFDF792F9A06800F054FC41EC39
:104B4000100BFDF78BF92079285CFDF739F92079F6
:104B5000285C2AE04A4643A16846C4F80890FBF75F
:104B600083FC694641A0FFF7F9F8A06800F03BFC20
:104B700041EC100BFDF772F9A06800F034FC41EC39
:104B8000100BFDF76BF90A20FDF7B0FE20792844E1
:104B900090F8E400FDF714F92079284403E007E0D9
:104BA0001BE021E03EE090F8E400FDF709F95DE14B
:104BB000A06840F6B8316430A060884200D9A16096
:104BC00028A16846A268FBF74FFC694627A0FFF7BB
:104BD000C5F817E1D4E0DCE000E1A0686438A0602B
:104BE0006428EDD2A660EBE7A06864A1B0FBF6F004
:104BF000401EE07027716846FBF736FC84F802908F
:104C0000E5E000BF00EB4000217905EB8000405C4F
:104C1000FDF7D6F8E078217900EB400005EB800045
:104C2000405CC2E7A06813A1B0FBF6F0401EE07044
:104C300084F804806846FBF717FCA770C7E0000003
:104C4000743A0020180000204F4B000074362E7478
:104C50007874000074372E747874000074382E74E1
:104C6000787400002564487A0000000074342E74C3
:104C7000787400003156000074352E74787400008A
:104C80004F4B25640000000074392E7478740000C6
:104C90007431302E74787400283229736574316B46
:104CA000687A000028322973657431306B687A00A5
:104CB0002832297365743130306B687A0000000047
:104CC000283229736574316D687A000028322961B1
:104CD0006464313030687A00283229726564756303
:104CE00065313030687A000074312E7478740000B9
:104CF000A086010040420F0028332973746172744A
:104D00000000000074332E74787400002834297376
:104D10006574313030687A00283429736574326BD9
:104D2000687A0000283429616464313030687A0080
:104D3000283429726564756365313030687A000003
:104D400028342973657432760000000028342973F2
:104D50006574317600000000283429616464302EC7
:104D60003176000000000000000024402834297241
:104D70006564756365302E317600000032560000A0
:104D8000A078401CC0B2A070142809D984F8029001
:104D900006E0A078401EC0B2A0700A2800D2A7701A
:104DA000A068B0FBF6F0401EE070A078A0F10A0108
:104DB000217100F018FB53EC182B00F05FF941EC67
:104DC000100B30A153EC102B6846FBF74DFB6946E6
:104DD000AFF25C10FEF7C2FFE07813E7B0FBF6F12C
:104DE00001EBC10202EB01114FF6FF7202EA8101F1
:104DF00001F1640292B2131A401A834201DBA160EE
:104E000000E0A260A06800F0EEFA41EC100BFDF7A4
:104E100025F8A06800F0E7FA41EC100BFDF71EF84A
:104E2000A068B0FBF6F0401EC0B2E070EAE617A141
:104E30001A48FBF797FCC8B919A16846FBF714FBA1
:104E4000694619A0FEF78AFFC820FCF7B9FFC82001
:104E5000FCF7B6FF9FED160B84ED040BFCF7FEFF8D
:104E600094ED040BFCF7FAFF012020701E210B4883
:104E7000FBF72FFC104981F800800DB0BDEC028BD0
:104E8000BDE8F083252E3266560000006869676829
:104E9000283129737461727400000000743A002094
:104EA000576169742E2E2E007432302E747874007F
:104EB0000000000000407F409D01002010B5002947
:104EC0000AD00878002807D005487844FBF74AFC48
:104ED000002801D0002010BD0248784410BD000019
:104EE000460B00003E0B000010B500290AD00878E0
:104EF000002807D005487844FBF734FC002801D08F
:104F0000002010BD0248784410BD0000360B0000A0
:104F10002E0B000010B591EA030F48BF83F0004349
:104F200000F1EC83841A71EB030C05D2121943EBE8
:104F30000C03001B61EB0C01DFF824E14FEA115474
:104F4000A4EB135C1EEA430F18BF9EEA445F73D0C4
:104F500023EA0E03DCF1200E21EA045143F480130E
:104F600032D322FA0CFE10EB0E0023FA0CFE41EBBA
:104F70000E01CCF1200E03FA0EFE10EB0E0051F1E3
:104F80000001B1F5801FCCF1200E32D201EB0451AB
:104F900012FA0EF2BDE8104058BF7047401C38BFEF
:104FA0005FEA420218BF7047002814BF20F00100DA
:104FB00041F100014FEA410313F5001F38BF70476C
:104FC000A1F1C04100F056BB012A43EB0302ACF152
:104FD000200CDCF11F0E32BF4FF0000E23FA0CF351
:104FE00010EB030041EB0451B4EB115FD0D0A1EB07
:104FF000045101F5801149085FEA300001EB0451CA
:105000000ED350F1000038BF12FA0EFE08D1BDE8F1
:105010001040C9E7401C38BF5FEA4202CAD1C3E76B
:10502000BDE810404FEA410313F5001F38BF704739
:10503000A1F1C04100F01EBB9EEA445F08D011EA16
:105040005E0FBDE8104004BF01F000410020704732
:10505000BDE8104070B500F0BFFA00BF64FBBE3E73
:105060000000E0FF491058BFC1F140415B1058BF3C
:10507000C3F140438B42EFF3008070472DE9C041FC
:1050800030B4DFF8A0C23CEA111418BF3CEA131494
:1050900000F0EC8081EA03051CEA111444EAD5749F
:1050A00018BF1CEA131500F0C780A4EB05044FF0ED
:1050B000004545EAC12145EAC32341EA505143EA8C
:1050C000525304F17F74994204F500344FEAC02032
:1050D0004FEAC22208BF904200F09C804FEA13655D
:1050E0000FF24016765D4FEA134506FB05F7C7F150
:1050F000807706FB07F74FEAD737A7FB03687642AE
:10510000C8F58038A7FB06CE38BFA8F1010807FB19
:1051100008E64FF0000EA6FB028CE6FB03CEDCF1A6
:10512000000CCEF1004E38BFAEF1010EA6FB0C58BC
:105130004FF000074FF00005E6FB0E87A1FB08C605
:10514000A0FB07CE16EB0E0645F10005E1FB076557
:1051500015F1E04E7EBFA4F580345FEA46066D414E
:1051600016F1800745F100054FEA17274FEA06665A
:1051700047EA0567A6F1DE46B6F1805F4FEA1525DE
:105180001FD9384624F0010C05EBC471BCF1FE6F49
:1051900001EB0C1102D8F0BCBDE8008124425CBFD9
:1051A00001F5801E9EEAC47F02D4F0BCBDE80081F8
:1051B000244238D4F0BCA1F1C041BDE8004100F068
:1051C00059BA4FEAD22242EA43524FEAD323A7FB0D
:1051D00002864FEAD02040EA415007FB03661EEAF0
:1051E0000E0F4FEAD12105FB026658BFA6EB005611
:1051F000B6EB00564FEA520E4EEAC37E18EB0E0E87
:1052000056EB530EBDD518EB02085E417F1C55F1DD
:105210000005B6E74FF480154FF000074FF0000689
:105220004FF00008ADE7F0BC4FF0000001F1C041C5
:1052300001F00041BDE8008111EA0C1F0CEA1315D2
:1052400000D00CE013EA0C1F00F025804FF00000A6
:10525000F0BC81EA030101F00041BDE80081F0BC2F
:10526000BDE8004181EA030100F004BAF0BCBDE8EA
:10527000004170B500F0B0F9097EFC3E00F007B8BF
:1052800081EA03014FF0000001F00041704781EA1C
:10529000030100F0EFB9F0BCBDE800414FF00000A1
:1052A00021497047FFFDFBF9F7F5F4F2F0EEEDEB65
:1052B000E9E8E6E4E3E1E0DEDDDBDAD8D7D5D4D314
:1052C000D1D0CFCDCCCBCAC8C7C6C5C4C2C1C0BF60
:1052D000BEBDBCBBBAB9B8B7B6B5B4B3B2B1B0AF66
:1052E000AEADACABAAA9A8A8A7A6A5A4A3A3A2A14A
:1052F000A09F9F9E9D9C9C9B9A9999989797969505
:1053000095949393929191908F8F8E8E8D8C8C8BA0
:105310008B8A898988888787868585848483838228
:10532000828181800000FF070000F87F4FEA41037F
:105330004FEA5353A3F58063D3F11E03C8BFD3F1E3
:10534000210C0CDD4FF0004242EAC12242EA5052E9
:1053500032FA03FC8CEAE17CACEBE1707047102B75
:10536000C4BF0020704703F5787CBCF1FF3F04D038
:105370006FF0004282EA2100704770B500F02CF90E
:105380004992248000207047F2E700004FEA115351
:10539000A3F58063D3F11E03A8BFD3F1200C08DB73
:1053A0004FF0004242EAC12252EA505232FA03F070
:1053B000704709420BD4102BC4BF0020704703F57F
:1053C000787CBCF1FF3F05D04FF0FF3070474FF0C5
:1053D0000000704770B500F0FFF800BF49922480CC
:1053E00000207047F0E7B0FA80F310FA03F10AD01A
:1053F000C3F11D0303F580634FEA41504FEA0352A6
:1054000002EBD12170474FF00000704751EA030CC6
:1054100017D41CF5801F58BFBCF5801F00F1068013
:10542000994218BF704708BF9042704707D711F5DF
:10543000801F58BF13F5801F19D4994270478942C5
:1054400070471CF5801F08D5BCF5801FF7D58B422F
:1054500018BF704708BF824270474FF4001C1CEB16
:10546000410F38BF1CEB430F01D28B42704770B520
:1054700000F0B2F8922449004FF000514FF08053F1
:10548000FFF7F0BDDFF848C170B51CEA111E1EBF62
:105490001CEA13159EEA0C0F95EA0C0F00F06F80C2
:1054A00081EA030423EA4C134EEAD47E21EA4C112C
:1054B00041F4801143F48013AE44A1FB024CA0FBE5
:1054C0000365AEF17F7E361955EB0C05A1FB034C4D
:1054D0004CF10003A0FB021C16EB0C06654153F1D6
:1054E0000003094218BF46F0010613F4007F0BD1F8
:1054F0004FEA03314FEA0530340341EA155140EADF
:1055000016506FF003020AE04FEAC3214FEAC520AC
:10551000F40241EA555140EA56506FF0020202EBA4
:105520002E4201EB025585EACE710AD05FEA440CA7
:1055300018BF24F0004450F1000041F1000120EABE
:10554000D47040F2FE7C624500D270BDA84214BF08
:105550004FF080444FF04044002E08BF0024BEF1BD
:10556000806FA8BFA1F1C041BDE8704080F2828089
:105570004FF0000001F1C04101F0004170479EEA88
:105580000C0F0CEA131518BF95EA0C0F06D04FF05C
:10559000000081EA030E0EF0004170BD00F01CF81F
:1055A0008900013E00F007B800F009B84FEA430C4B
:1055B0005FEA5C5C08D081EA030100F05BB84FEA67
:1055C000410C5FEA5C5CF6D14FF000000149704786
:1055D0000000FF070000F87F0EF1020E2EF0030E10
:1055E0005EF8046B364205D4012A43EB030515F53A
:1055F000001F12D8012841EB010C1CF5001F0CD82C
:105600000ED14FEAD17C15F5001F0CEB4C0C0CF1C0
:10561000020C08BF4CEBD37C04E04FF0080C01E017
:105620004FEAD37C0CEB4C0526FA05F606F007068C
:10563000B6F1040C06D20EEB860CBDE870404CF0BF
:10564000010C6047DFE80CF0090B02024FF000414B
:105650004FF00000A1F5002170BD19461046012849
:1056600051EB010418BFD4F5001484BF002001F0F1
:10567000004170BD0808A0F500114FEA31017047E4
:1056800053EA010C17D41CF5801F58BFBCF5801FCE
:1056900000F106808B4218BF704708BF82427047F6
:1056A00007D713F5801F58BF11F5801F19D48B42FF
:1056B00070479B4270471CF5801F08D5BCF5801FC2
:1056C000F7D5994218BF704708BF904270474FF412
:1056D000001C1CEB430F38BF1CEB410F01D2994259
:1056E00070470FB40CBC03BCFFF7C1BE10B591EA04
:1056F000030F48BF83F000433FF514AC841A71EBED
:10570000030C07D212198CF0004C43EB0C03001B66
:1057100061EB0C01DFF8A4E14FEA1154A4EB135C38
:105720001EEA430F18BF9EEA445F00F0B08023EAF0
:105730006E03524221EA0451C3EB6E0338BF5B1E75
:10574000DCF1200E25D322FA0CFE10EB0E0043FAFA
:105750000CFE41EB0E01CCF1200E03FA0EFE10EB15
:105760000E0051F10001CCF1200E29D412FA0EF2F4
:1057700001EB0451BDE8104058BF7047401C1CBFEE
:10578000B2F1004F704700280CBF491C20F0010007
:10579000704712EB020E43EB030218BF4FF0010EED
:1057A0004EEA4202ACF1200CDCF11E0E54D943FA51
:1057B0000CFE10EB0E0051F1FF31CCF11E0ED5D5D1
:1057C0000EF1010E12FA0EFE404141EB010101EB18
:1057D000445C5FEA5C5C10D910EBDE7001EB0451B5
:1057E00038BFBEF1004FBDE8104018BF7047002819
:1057F0000CBF491C20F00100704730D24FEAD42C76
:1058000011F5001124F400641BD0B1FA81F20B3AB7
:10581000A41AA41ED2F12003914030FA03F31943D5
:10582000904001EBCC71002C01EB0451BDE810401D
:10583000A8BF704701F1C0414FF0000001F00041E6
:105840007047B0FA80F310FA03F100D110BDE41AEA
:10585000173C4805C90AE4E701EB045110BD4910A3
:1058600001EB0451BDE810404FEA300002E04FF078
:10587000000170474A0008BF0042F8D0B2F5001F8F
:1058800028BF704701F000414FF0000070479EEACA
:10589000445F07D011EA5E0FBDE8104004BF00214D
:1058A00000207047BDE8104070B5FFF795FE00BFBF
:1058B00040DFF63E83F00041104670470000E0FFF5
:1058C0004FF04070E1EE100A7047FBF736B9FBF776
:1058D000F5BB0006101600061016000000000000C0
:1058E000000001020304060708090000000001028D
:1058F0000304040000080000000000000002000192
:1059000000001000000000000000000030313233C1
:1059100034353637383941424344454640305800E3
:105920003031323334353637383961626364656615
:1059300040307800303132333435363738396162AF
:105940006364656678700030313233343536373809
:10595000394142434445465850000000024000008F
:10596000000000A00000000005400000000000C88A
:10597000000000000C4000000000409C00000000FF
:10598000194000000020BCBE0000000034400000B0
:10599000BFC91B8E00000004B5400000504BCFD0A3
:1059A0006607E2CF010000006C4100003E8251AA70
:1059B000DFEEA73401000000D9420000DCB5A0E210
:1059C0003A301F97FFFFFFFFB4450000FD25A0C838
:1059D000E9A3C14FFFFFFFFFFF3F00000000008071
:1059E00000000000FF3F00000000008000000000F9
:1059F0003C5B000800000020A4010000C401000876
:105A00009C5C0008A4010020543F00002002000814
:105A10001C00000043000000F8FFFFFF0C00000026
:105A20000E0000000F0000002E000000100100001A
:105A300043000000F8FFFFFF00404040404040406E
:105A40004040414141414140404040404040404051
:105A500040404040404040404005020202020202F5
:105A60000202020202020202022020202020202044
:105A70002020200202020202020290909090909058
:105A80001010101010101010101010101010101016
:105A9000101010100202020202028888888888888A
:105AA0000808080808080808080808080808080876
:105AB000080808080202020240000000000000007E
:105AC00000000000000000000000000000000000D6
:105AD00000000000000000000000000000000000C6
